:100000000C942A000C9447000C9447000C94470071
:100010000C9447000C9447000C9447000C94470044
:100020000C9447000C9447000C9447000C94470034
:100030000C9447000C9447000C9447000C94470024
:100040000C9447000C9447000C9447000C94470014
:100050000C94470011241FBECFE5D8E0DEBFCDBF12
:1000600010E0A0E6B0E0E8EFF9E002C005900D92E4
:10007000A037B107D9F710E0A0E7B0E001C01D92AA
:10008000A437B107E1F70E94E3030C94FA040C943F
:10009000000040E00E94870108950E946C030895CB
:1000A000CF93C82F82E060E040E00E94420282E0ED
:1000B00061E040E00E94420281E06C2F0E94E30276
:1000C00082E062E041E00E9442028FE99FE00197F6
:1000D000F1F700C0000082E062E040E00E944202CE
:1000E000CF91089581E06FEF0E94280282E060E0E6
:1000F00041E00E94870182E061E041E00E948701C7
:1001000082E062E041E00E9487018FE59AEE01976C
:10011000F1F700C0000088E30E9450008CE00E94CC
:10012000500081E00E9450000895CF93C82F82E0D4
:1001300060E041E00E94420282E061E040E00E9413
:10014000420281E06C2F0E94E30282E062E041E023
:100150000E9442028FE99FE00197F1F700C0000082
:1001600082E062E040E00E944202CF9108950F9346
:100170001F93CF938C01FC018081882351F0C0E054
:100180000E949500CF5FF801EC0FF11D808188235C
:10019000B9F7CF911F910F9108954F925F926F928F
:1001A0007F928F929F92AF92BF92CF92DF92EF9207
:1001B000FF92CF93DF936B017C016115710581057F
:1001C000910521F480E30E9495004FC081E090E00A
:1001D000A0E0B0E00F2EFAE08F2EF0E09F2EF0E0CE
:1001E000AF2EF0E0BF2EF02DBC01CD01A501940192
:1001F0000E94B9042B013C01C701B6010E94D8043A
:10020000DC01CB01840D951DA61DB71DC22ED32E7A
:10021000E42EF52EC114D104E104F10429F7813054
:100220009105A105B10509F10F2EFAE04F2EF0E07E
:100230005F2EF0E06F2EF0E07F2EF02DBC01CD019F
:10024000A30192010E94D804822EC32EC42FD52F61
:10025000862F805D0E949500882D9C2DAC2FBD2F90
:1002600081309105A105B10549F7DF91CF91FF904C
:10027000EF90DF90CF90BF90AF909F908F907F9046
:100280006F905F904F900895882329F0813029F472
:10029000862F805C03C0862F01C080E080580E94BA
:1002A00050000895DF92EF92FF920F931F93CF9328
:1002B000DF93082FF92E162FE42ED22E862F880FCB
:1002C000880F880F805C0E945000C02FDF2D00E057
:1002D00089910E9495000F5F0830D1F78E2D6D2D0A
:1002E0000E944401812F0E949500DF91CF911F91C0
:1002F0000F91FF90EF90DF90089581E00E945000F1
:100300008FE19EE40197F1F700C000000895683086
:1003100008F096C0442309F04AC08230D9F08330F7
:1003200020F4813009F08EC006C0833011F1843092
:1003300009F088C02DC02AB381E090E0AC0102C072
:10034000440F551F6A95E2F7BA01609562236ABBB4
:1003500080E0089527B381E090E0AC0102C0440F33
:10036000551F6A95E2F7BA016095622367BB80E08A
:10037000089524B381E090E0AC0102C0440F551F02
:100380006A95E2F7BA016095622364BB80E0089544
:1003900021B381E090E0AC0102C0440F551F6A9583
:1003A000E2F7BA016095622361BB80E008954130B5
:1003B00009F04AC08230D1F0833020F4813009F056
:1003C00045C006C0833001F1843009F03FC02AC027
:1003D0002AB381E090E0AC0102C0440F551F6A953A
:1003E000E2F7BA01622B6ABB80E0089527B381E08F
:1003F00090E0AC0102C0440F551F6A95E2F7BA01C4
:10040000622B67BB80E0089524B381E090E0AC01EB
:1004100002C0440F551F6A95E2F7BA01622B64BB14
:1004200080E0089521B381E090E0AC0102C0440F68
:10043000551F6A95E2F7BA01622B61BB80E008950F
:1004400081E0089581E0089581E0089581E00895B4
:10045000823069F0833018F4813091F405C0833024
:1004600049F0843069F409C06ABB80E0089567BB35
:1004700080E0089564BB80E0089561BB80E008954A
:1004800081E00895683008F096C0442309F04AC01E
:100490008230D9F0833020F4813009F08EC006C05C
:1004A000833011F1843009F088C02DC02BB381E076
:1004B00090E0AC0102C0440F551F6A95E2F7BA0103
:1004C000609562236BBB80E0089528B381E090E0E3
:1004D000AC0102C0440F551F6A95E2F7BA0160955E
:1004E000622368BB80E0089525B381E090E0AC0111
:1004F00002C0440F551F6A95E2F7BA016095622366
:1005000065BB80E0089522B381E090E0AC0102C0B9
:10051000440F551F6A95E2F7BA016095622362BBEA
:1005200080E00895413009F04AC08230D1F0833034
:1005300020F4813009F045C006C0833001F18430D9
:1005400009F03FC02AC02BB381E090E0AC0102C0AB
:10055000440F551F6A95E2F7BA01622B6BBB80E02E
:10056000089528B381E090E0AC0102C0440F551F0C
:100570006A95E2F7BA01622B68BB80E0089525B363
:1005800081E090E0AC0102C0440F551F6A95E2F78C
:10059000BA01622B65BB80E0089522B381E090E050
:1005A000AC0102C0440F551F6A95E2F7BA01622BF5
:1005B00062BB80E0089581E0089581E0089581E0C4
:1005C000089581E00895823069F0833018F4813015
:1005D00091F405C0833049F0843069F409C06BBBE5
:1005E00080E0089568BB80E0089565BB80E00895D1
:1005F00062BB80E0089581E00895683008F046C04D
:100600008230D1F0833020F4813009F041C006C03F
:10061000833001F1843009F03BC02AC02BB381E064
:1006200090E0AC0102C0440F551F6A95E2F7BA0191
:1006300062276BBB80E0089528B381E090E0AC01B5
:1006400002C0440F551F6A95E2F7BA01622768BBE2
:1006500080E0089525B381E090E0AC0102C0440F32
:10066000551F6A95E2F7BA01622765BB80E00895DD
:1006700022B381E090E0AC0102C0440F551F6A959F
:10068000E2F7BA01622762BB80E0089581E0089535
:1006900081E00895823079F0833018F48130D1F40C
:1006A00005C0833069F08430A9F40FC08BB3809506
:1006B0008BBB80E0089588B3809588BB80E0089567
:1006C00085B3809585BB80E0089582B3809582BB19
:1006D00080E0089581E008958230B1F0833018F40D
:1006E0008130A9F505C08330D9F0843081F524C06C
:1006F00029B330E0C90102C0959587956A95E2F764
:10070000982F917099BB23C026B330E0C90102C075
:10071000959587956A95E2F7982F917096BB17C0CB
:1007200023B330E0C90102C0959587956A95E2F739
:10073000982F917093BB0BC020B330E0C90102C069
:10074000959587956A95E2F7982F917090BB892FC0
:1007500008958230A9F0833018F4813091F505C0F6
:100760008330C9F0843069F521C029B330E0C90174
:1007700002C0959587956A95E2F7817089BB0895C7
:1007800026B330E0C90102C0959587956A95E2F7D6
:10079000817086BB089523B330E0C90102C09595EE
:1007A00087956A95E2F7817083BB089520B330E0A6
:1007B000C90102C0959587956A95E2F7817080BB63
:1007C000089580E008950E94720082E063E00E9434
:1007D000490082E064E00E94490082E065E00E94F6
:1007E000490082E066E00E94490082E067E00E94E2
:1007F000490080E060E00E94440180E690E00E94B1
:10080000B70080E06CE00E94440184E690E00E9422
:10081000B70081E060E00E94440188E690E00E9419
:10082000B70081E06CE00E9444018CE690E00E94F9
:10083000B70082E063E00E944D00813089F480912E
:1008400073008F5F8093730080E062E00E94440138
:100850006091730070E080E090E00E94CD007FC066
:1008600082E064E00E944D00813089F48091720042
:100870008F5F8093720080E06EE00E94440160917F
:10088000720070E080E090E00E94CD0068C082E0DD
:1008900065E00E944D00813089F4809171008F5F86
:1008A0008093710081E062E00E94440160917100D8
:1008B00070E080E090E00E94CD0051C082E066E0F0
:1008C0000E944D00813089F4809170008F5F809389
:1008D000700081E06EE00E9444016091700070E061
:1008E00080E090E00E94CD003AC082E067E00E9484
:1008F0004D008130A1F51092730010927200109299
:1009000071001092700080E062E00E9444016091EA
:10091000730070E080E090E00E94CD0080E06EE027
:100920000E9444016091720070E080E090E00E94BB
:10093000CD0081E062E00E9444016091710070E0AE
:1009400080E090E00E94CD0081E06EE00E944401D2
:100950006091700070E080E090E00E94CD008FEF29
:1009600091EEA4E081509040A040E1F700C000006B
:1009700060CF629FD001739FF001829FE00DF11D57
:10098000649FE00DF11D929FF00D839FF00D749F09
:10099000F00D659FF00D9927729FB00DE11DF91FB5
:1009A000639FB00DE11DF91FBD01CF011124089512
:1009B000A1E21A2EAA1BBB1BFD010DC0AA1FBB1F63
:1009C000EE1FFF1FA217B307E407F50720F0A21BD5
:1009D000B30BE40BF50B661F771F881F991F1A9442
:1009E00069F760957095809590959B01AC01BD016C
:0809F000CF010895F894FFCF38
:1009F800413D3000423D3000433D3000443D300031
:00000001FF
